{
  "_format": "hh-sol-artifact-1",
  "contractName": "Storage",
  "sourceName": "contracts/Storage.sol",
  "abi": [
    {
      "inputs": [
        {
          "internalType": "string",
          "name": "_name",
          "type": "string"
        },
        {
          "internalType": "uint256",
          "name": "_number",
          "type": "uint256"
        }
      ],
      "name": "addPerson",
      "outputs": [],
      "stateMutability": "nonpayable",
      "type": "function"
    },
    {
      "inputs": [
        {
          "internalType": "string",
          "name": "",
          "type": "string"
        }
      ],
      "name": "nameToFavoriteNumber",
      "outputs": [
        {
          "internalType": "uint256",
          "name": "",
          "type": "uint256"
        }
      ],
      "stateMutability": "view",
      "type": "function"
    },
    {
      "inputs": [],
      "name": "number",
      "outputs": [
        {
          "internalType": "uint256",
          "name": "",
          "type": "uint256"
        }
      ],
      "stateMutability": "view",
      "type": "function"
    },
    {
      "inputs": [
        {
          "internalType": "uint256",
          "name": "",
          "type": "uint256"
        }
      ],
      "name": "people",
      "outputs": [
        {
          "internalType": "uint256",
          "name": "number",
          "type": "uint256"
        },
        {
          "internalType": "string",
          "name": "name",
          "type": "string"
        }
      ],
      "stateMutability": "view",
      "type": "function"
    },
    {
      "inputs": [],
      "name": "person",
      "outputs": [
        {
          "internalType": "uint256",
          "name": "number",
          "type": "uint256"
        },
        {
          "internalType": "string",
          "name": "name",
          "type": "string"
        }
      ],
      "stateMutability": "view",
      "type": "function"
    },
    {
      "inputs": [],
      "name": "retrieve",
      "outputs": [
        {
          "internalType": "uint256",
          "name": "",
          "type": "uint256"
        }
      ],
      "stateMutability": "view",
      "type": "function"
    },
    {
      "inputs": [
        {
          "internalType": "uint256",
          "name": "num",
          "type": "uint256"
        }
      ],
      "name": "store",
      "outputs": [],
      "stateMutability": "nonpayable",
      "type": "function"
    }
  ],
  "bytecode": "0x60806040526040518060400160405280600581526020017f7375686173000000000000000000000000000000000000000000000000000000815250600190816200004a91906200039f565b507326694cd0faf239d8c2c07aa97608f476b3c7b339600260006101000a81548173ffffffffffffffffffffffffffffffffffffffff021916908373ffffffffffffffffffffffffffffffffffffffff1602179055506040518060400160405280600281526020016040518060400160405280600581526020017f737568617300000000000000000000000000000000000000000000000000000081525081525060036000820151816000015560208201518160010190816200010e91906200039f565b5050503480156200011e57600080fd5b5062000486565b600081519050919050565b7f4e487b7100000000000000000000000000000000000000000000000000000000600052604160045260246000fd5b7f4e487b7100000000000000000000000000000000000000000000000000000000600052602260045260246000fd5b60006002820490506001821680620001a757607f821691505b602082108103620001bd57620001bc6200015f565b5b50919050565b60008190508160005260206000209050919050565b60006020601f8301049050919050565b600082821b905092915050565b600060088302620002277fffffffffffffffffffffffffffffffffffffffffffffffffffffffffffffffff82620001e8565b620002338683620001e8565b95508019841693508086168417925050509392505050565b6000819050919050565b6000819050919050565b6000620002806200027a62000274846200024b565b62000255565b6200024b565b9050919050565b6000819050919050565b6200029c836200025f565b620002b4620002ab8262000287565b848454620001f5565b825550505050565b600090565b620002cb620002bc565b620002d881848462000291565b505050565b5b818110156200030057620002f4600082620002c1565b600181019050620002de565b5050565b601f8211156200034f576200031981620001c3565b6200032484620001d8565b8101602085101562000334578190505b6200034c6200034385620001d8565b830182620002dd565b50505b505050565b600082821c905092915050565b6000620003746000198460080262000354565b1980831691505092915050565b60006200038f838362000361565b9150826002028217905092915050565b620003aa8262000125565b67ffffffffffffffff811115620003c657620003c562000130565b5b620003d282546200018e565b620003df82828562000304565b600060209050601f83116001811462000417576000841562000402578287015190505b6200040e858262000381565b8655506200047e565b601f1984166200042786620001c3565b60005b8281101562000451578489015182556001820191506020850194506020810190506200042a565b868310156200047157848901516200046d601f89168262000361565b8355505b6001600288020188555050505b505050505050565b610ae880620004966000396000f3fe608060405234801561001057600080fd5b506004361061007d5760003560e01c806377ec2b551161005b57806377ec2b55146100d85780638381f58a146100f75780638bab8dd5146101155780639e7a13ad146101455761007d565b80632e64cec1146100825780636057361d146100a05780636f760f41146100bc575b600080fd5b61008a610176565b6040516100979190610405565b60405180910390f35b6100ba60048036038101906100b59190610460565b61017f565b005b6100d660048036038101906100d191906104f2565b610192565b005b6100e0610262565b6040516100ee9291906105e2565b60405180910390f35b6100ff6102fc565b60405161010c9190610405565b60405180910390f35b61012f600480360381019061012a9190610742565b610302565b60405161013c9190610405565b60405180910390f35b61015f600480360381019061015a9190610460565b610330565b60405161016d9291906105e2565b60405180910390f35b60008054905090565b8060008190555061018e610176565b5050565b6005604051806040016040528083815260200185858080601f016020809104026020016040519081016040528093929190818152602001838380828437600081840152601f19601f8201169050808301925050505050505081525090806001815401808255809150506001900390600052602060002090600202016000909190919091506000820151816000015560208201518160010190816102359190610997565b505050806006848460405161024b929190610a99565b908152602001604051809103902081905550505050565b6003806000015490806001018054610279906107ba565b80601f01602080910402602001604051908101604052809291908181526020018280546102a5906107ba565b80156102f25780601f106102c7576101008083540402835291602001916102f2565b820191906000526020600020905b8154815290600101906020018083116102d557829003601f168201915b5050505050905082565b60005481565b6006818051602081018201805184825260208301602085012081835280955050505050506000915090505481565b6005818154811061034057600080fd5b9060005260206000209060020201600091509050806000015490806001018054610369906107ba565b80601f0160208091040260200160405190810160405280929190818152602001828054610395906107ba565b80156103e25780601f106103b7576101008083540402835291602001916103e2565b820191906000526020600020905b8154815290600101906020018083116103c557829003601f168201915b5050505050905082565b6000819050919050565b6103ff816103ec565b82525050565b600060208201905061041a60008301846103f6565b92915050565b6000604051905090565b600080fd5b600080fd5b61043d816103ec565b811461044857600080fd5b50565b60008135905061045a81610434565b92915050565b6000602082840312156104765761047561042a565b5b60006104848482850161044b565b91505092915050565b600080fd5b600080fd5b600080fd5b60008083601f8401126104b2576104b161048d565b5b8235905067ffffffffffffffff8111156104cf576104ce610492565b5b6020830191508360018202830111156104eb576104ea610497565b5b9250929050565b60008060006040848603121561050b5761050a61042a565b5b600084013567ffffffffffffffff8111156105295761052861042f565b5b6105358682870161049c565b935093505060206105488682870161044b565b9150509250925092565b600081519050919050565b600082825260208201905092915050565b60005b8381101561058c578082015181840152602081019050610571565b60008484015250505050565b6000601f19601f8301169050919050565b60006105b482610552565b6105be818561055d565b93506105ce81856020860161056e565b6105d781610598565b840191505092915050565b60006040820190506105f760008301856103f6565b818103602083015261060981846105a9565b90509392505050565b600080fd5b7f4e487b7100000000000000000000000000000000000000000000000000000000600052604160045260246000fd5b61064f82610598565b810181811067ffffffffffffffff8211171561066e5761066d610617565b5b80604052505050565b6000610681610420565b905061068d8282610646565b919050565b600067ffffffffffffffff8211156106ad576106ac610617565b5b6106b682610598565b9050602081019050919050565b82818337600083830152505050565b60006106e56106e084610692565b610677565b90508281526020810184848401111561070157610700610612565b5b61070c8482856106c3565b509392505050565b600082601f8301126107295761072861048d565b5b81356107398482602086016106d2565b91505092915050565b6000602082840312156107585761075761042a565b5b600082013567ffffffffffffffff8111156107765761077561042f565b5b61078284828501610714565b91505092915050565b7f4e487b7100000000000000000000000000000000000000000000000000000000600052602260045260246000fd5b600060028204905060018216806107d257607f821691505b6020821081036107e5576107e461078b565b5b50919050565b60008190508160005260206000209050919050565b60006020601f8301049050919050565b600082821b905092915050565b60006008830261084d7fffffffffffffffffffffffffffffffffffffffffffffffffffffffffffffffff82610810565b6108578683610810565b95508019841693508086168417925050509392505050565b6000819050919050565b600061089461088f61088a846103ec565b61086f565b6103ec565b9050919050565b6000819050919050565b6108ae83610879565b6108c26108ba8261089b565b84845461081d565b825550505050565b600090565b6108d76108ca565b6108e28184846108a5565b505050565b5b81811015610906576108fb6000826108cf565b6001810190506108e8565b5050565b601f82111561094b5761091c816107eb565b61092584610800565b81016020851015610934578190505b61094861094085610800565b8301826108e7565b50505b505050565b600082821c905092915050565b600061096e60001984600802610950565b1980831691505092915050565b6000610987838361095d565b9150826002028217905092915050565b6109a082610552565b67ffffffffffffffff8111156109b9576109b8610617565b5b6109c382546107ba565b6109ce82828561090a565b600060209050601f831160018114610a0157600084156109ef578287015190505b6109f9858261097b565b865550610a61565b601f198416610a0f866107eb565b60005b82811015610a3757848901518255600182019150602085019450602081019050610a12565b86831015610a545784890151610a50601f89168261095d565b8355505b6001600288020188555050505b505050505050565b600081905092915050565b6000610a808385610a69565b9350610a8d8385846106c3565b82840190509392505050565b6000610aa6828486610a74565b9150819050939250505056fea2646970667358221220dc943cf9472a3710f0fc4e0fe7cf61f9a5fc62f10736f40ab76f31726bdef5ca64736f6c63430008180033",
  "linkReferences": {},
  "deployedLinkReferences": {}
}