{
  "_format": "hh-sol-artifact-1",
  "contractName": "CarbonOffset",
  "sourceName": "contracts/Carbon.sol",
  "abi": [
    {
      "inputs": [
        {
          "internalType": "uint256",
          "name": "initialSupply",
          "type": "uint256"
        },
        {
          "internalType": "uint256",
          "name": "_tokenPrice",
          "type": "uint256"
        }
      ],
      "stateMutability": "nonpayable",
      "type": "constructor"
    },
    {
      "inputs": [
        {
          "internalType": "address",
          "name": "spender",
          "type": "address"
        },
        {
          "internalType": "uint256",
          "name": "allowance",
          "type": "uint256"
        },
        {
          "internalType": "uint256",
          "name": "needed",
          "type": "uint256"
        }
      ],
      "name": "ERC20InsufficientAllowance",
      "type": "error"
    },
    {
      "inputs": [
        {
          "internalType": "address",
          "name": "sender",
          "type": "address"
        },
        {
          "internalType": "uint256",
          "name": "balance",
          "type": "uint256"
        },
        {
          "internalType": "uint256",
          "name": "needed",
          "type": "uint256"
        }
      ],
      "name": "ERC20InsufficientBalance",
      "type": "error"
    },
    {
      "inputs": [
        {
          "internalType": "address",
          "name": "approver",
          "type": "address"
        }
      ],
      "name": "ERC20InvalidApprover",
      "type": "error"
    },
    {
      "inputs": [
        {
          "internalType": "address",
          "name": "receiver",
          "type": "address"
        }
      ],
      "name": "ERC20InvalidReceiver",
      "type": "error"
    },
    {
      "inputs": [
        {
          "internalType": "address",
          "name": "sender",
          "type": "address"
        }
      ],
      "name": "ERC20InvalidSender",
      "type": "error"
    },
    {
      "inputs": [
        {
          "internalType": "address",
          "name": "spender",
          "type": "address"
        }
      ],
      "name": "ERC20InvalidSpender",
      "type": "error"
    },
    {
      "inputs": [
        {
          "internalType": "address",
          "name": "owner",
          "type": "address"
        }
      ],
      "name": "OwnableInvalidOwner",
      "type": "error"
    },
    {
      "inputs": [
        {
          "internalType": "address",
          "name": "account",
          "type": "address"
        }
      ],
      "name": "OwnableUnauthorizedAccount",
      "type": "error"
    },
    {
      "anonymous": false,
      "inputs": [
        {
          "indexed": true,
          "internalType": "address",
          "name": "owner",
          "type": "address"
        },
        {
          "indexed": true,
          "internalType": "address",
          "name": "spender",
          "type": "address"
        },
        {
          "indexed": false,
          "internalType": "uint256",
          "name": "value",
          "type": "uint256"
        }
      ],
      "name": "Approval",
      "type": "event"
    },
    {
      "anonymous": false,
      "inputs": [
        {
          "indexed": false,
          "internalType": "uint256",
          "name": "projectId",
          "type": "uint256"
        },
        {
          "indexed": false,
          "internalType": "address",
          "name": "auditor",
          "type": "address"
        },
        {
          "indexed": false,
          "internalType": "string",
          "name": "ipfsHash",
          "type": "string"
        },
        {
          "indexed": false,
          "internalType": "bool",
          "name": "isApproved",
          "type": "bool"
        }
      ],
      "name": "AuditPerformed",
      "type": "event"
    },
    {
      "anonymous": false,
      "inputs": [
        {
          "indexed": false,
          "internalType": "address",
          "name": "auditor",
          "type": "address"
        },
        {
          "indexed": false,
          "internalType": "uint8[]",
          "name": "specializations",
          "type": "uint8[]"
        }
      ],
      "name": "AuditorRegistered",
      "type": "event"
    },
    {
      "anonymous": false,
      "inputs": [
        {
          "indexed": false,
          "internalType": "address",
          "name": "developer",
          "type": "address"
        }
      ],
      "name": "DeveloperRegistered",
      "type": "event"
    },
    {
      "anonymous": false,
      "inputs": [
        {
          "indexed": false,
          "internalType": "uint256",
          "name": "projectId",
          "type": "uint256"
        },
        {
          "indexed": false,
          "internalType": "address",
          "name": "developer",
          "type": "address"
        },
        {
          "indexed": false,
          "internalType": "string",
          "name": "ipfsHash",
          "type": "string"
        }
      ],
      "name": "DocumentAdded",
      "type": "event"
    },
    {
      "anonymous": false,
      "inputs": [
        {
          "indexed": false,
          "internalType": "address",
          "name": "investor",
          "type": "address"
        },
        {
          "indexed": false,
          "internalType": "string",
          "name": "ipfsHash",
          "type": "string"
        }
      ],
      "name": "DocumentAdded",
      "type": "event"
    },
    {
      "anonymous": false,
      "inputs": [
        {
          "indexed": false,
          "internalType": "uint256",
          "name": "projectId",
          "type": "uint256"
        },
        {
          "indexed": false,
          "internalType": "address",
          "name": "developer",
          "type": "address"
        },
        {
          "indexed": false,
          "internalType": "uint256",
          "name": "amount",
          "type": "uint256"
        }
      ],
      "name": "FundsWithdrawn",
      "type": "event"
    },
    {
      "anonymous": false,
      "inputs": [
        {
          "indexed": false,
          "internalType": "uint256",
          "name": "projectId",
          "type": "uint256"
        },
        {
          "indexed": false,
          "internalType": "address",
          "name": "investor",
          "type": "address"
        },
        {
          "indexed": false,
          "internalType": "uint256",
          "name": "amount",
          "type": "uint256"
        },
        {
          "indexed": false,
          "internalType": "uint256",
          "name": "startTime",
          "type": "uint256"
        },
        {
          "indexed": false,
          "internalType": "uint256",
          "name": "endTime",
          "type": "uint256"
        }
      ],
      "name": "InvestmentMade",
      "type": "event"
    },
    {
      "anonymous": false,
      "inputs": [
        {
          "indexed": false,
          "internalType": "address",
          "name": "investor",
          "type": "address"
        }
      ],
      "name": "InvestorRegistered",
      "type": "event"
    },
    {
      "anonymous": false,
      "inputs": [
        {
          "indexed": true,
          "internalType": "address",
          "name": "previousOwner",
          "type": "address"
        },
        {
          "indexed": true,
          "internalType": "address",
          "name": "newOwner",
          "type": "address"
        }
      ],
      "name": "OwnershipTransferred",
      "type": "event"
    },
    {
      "anonymous": false,
      "inputs": [
        {
          "indexed": false,
          "internalType": "uint256",
          "name": "projectId",
          "type": "uint256"
        },
        {
          "indexed": false,
          "internalType": "address",
          "name": "developer",
          "type": "address"
        }
      ],
      "name": "ProjectCreated",
      "type": "event"
    },
    {
      "anonymous": false,
      "inputs": [
        {
          "indexed": false,
          "internalType": "address",
          "name": "auditor",
          "type": "address"
        },
        {
          "indexed": false,
          "internalType": "uint8",
          "name": "specialization",
          "type": "uint8"
        }
      ],
      "name": "SpecializationAdded",
      "type": "event"
    },
    {
      "anonymous": false,
      "inputs": [
        {
          "indexed": true,
          "internalType": "address",
          "name": "from",
          "type": "address"
        },
        {
          "indexed": true,
          "internalType": "address",
          "name": "to",
          "type": "address"
        },
        {
          "indexed": false,
          "internalType": "uint256",
          "name": "value",
          "type": "uint256"
        }
      ],
      "name": "Transfer",
      "type": "event"
    },
    {
      "inputs": [
        {
          "internalType": "uint8",
          "name": "specialization",
          "type": "uint8"
        }
      ],
      "name": "addAuditorSpecialization",
      "outputs": [],
      "stateMutability": "nonpayable",
      "type": "function"
    },
    {
      "inputs": [
        {
          "internalType": "string",
          "name": "ipfsHash",
          "type": "string"
        }
      ],
      "name": "addInvestorDocument",
      "outputs": [],
      "stateMutability": "nonpayable",
      "type": "function"
    },
    {
      "inputs": [
        {
          "internalType": "address",
          "name": "owner",
          "type": "address"
        },
        {
          "internalType": "address",
          "name": "spender",
          "type": "address"
        }
      ],
      "name": "allowance",
      "outputs": [
        {
          "internalType": "uint256",
          "name": "",
          "type": "uint256"
        }
      ],
      "stateMutability": "view",
      "type": "function"
    },
    {
      "inputs": [
        {
          "internalType": "address",
          "name": "spender",
          "type": "address"
        },
        {
          "internalType": "uint256",
          "name": "value",
          "type": "uint256"
        }
      ],
      "name": "approve",
      "outputs": [
        {
          "internalType": "bool",
          "name": "",
          "type": "bool"
        }
      ],
      "stateMutability": "nonpayable",
      "type": "function"
    },
    {
      "inputs": [
        {
          "internalType": "uint256",
          "name": "",
          "type": "uint256"
        },
        {
          "internalType": "uint256",
          "name": "",
          "type": "uint256"
        }
      ],
      "name": "auditRecords",
      "outputs": [
        {
          "internalType": "address",
          "name": "auditor",
          "type": "address"
        },
        {
          "internalType": "uint8",
          "name": "specialization",
          "type": "uint8"
        },
        {
          "internalType": "string",
          "name": "auditIpfsHash",
          "type": "string"
        },
        {
          "internalType": "bool",
          "name": "isApproved",
          "type": "bool"
        }
      ],
      "stateMutability": "view",
      "type": "function"
    },
    {
      "inputs": [
        {
          "internalType": "address",
          "name": "",
          "type": "address"
        }
      ],
      "name": "auditors",
      "outputs": [
        {
          "internalType": "address",
          "name": "auditorAddress",
          "type": "address"
        }
      ],
      "stateMutability": "view",
      "type": "function"
    },
    {
      "inputs": [
        {
          "internalType": "address",
          "name": "account",
          "type": "address"
        }
      ],
      "name": "balanceOf",
      "outputs": [
        {
          "internalType": "uint256",
          "name": "",
          "type": "uint256"
        }
      ],
      "stateMutability": "view",
      "type": "function"
    },
    {
      "inputs": [
        {
          "internalType": "uint256",
          "name": "projectId",
          "type": "uint256"
        }
      ],
      "name": "createProject",
      "outputs": [],
      "stateMutability": "nonpayable",
      "type": "function"
    },
    {
      "inputs": [],
      "name": "decimals",
      "outputs": [
        {
          "internalType": "uint8",
          "name": "",
          "type": "uint8"
        }
      ],
      "stateMutability": "view",
      "type": "function"
    },
    {
      "inputs": [
        {
          "internalType": "address",
          "name": "",
          "type": "address"
        }
      ],
      "name": "developers",
      "outputs": [
        {
          "internalType": "address",
          "name": "developerAddress",
          "type": "address"
        }
      ],
      "stateMutability": "view",
      "type": "function"
    },
    {
      "inputs": [
        {
          "internalType": "uint256",
          "name": "projectId",
          "type": "uint256"
        },
        {
          "internalType": "uint256",
          "name": "amount",
          "type": "uint256"
        },
        {
          "internalType": "uint256",
          "name": "duration",
          "type": "uint256"
        }
      ],
      "name": "investInProject",
      "outputs": [],
      "stateMutability": "nonpayable",
      "type": "function"
    },
    {
      "inputs": [
        {
          "internalType": "address",
          "name": "",
          "type": "address"
        }
      ],
      "name": "investors",
      "outputs": [
        {
          "internalType": "address",
          "name": "investorAddress",
          "type": "address"
        },
        {
          "internalType": "bool",
          "name": "isApproved",
          "type": "bool"
        }
      ],
      "stateMutability": "view",
      "type": "function"
    },
    {
      "inputs": [
        {
          "internalType": "address",
          "name": "to",
          "type": "address"
        }
      ],
      "name": "mint",
      "outputs": [],
      "stateMutability": "payable",
      "type": "function"
    },
    {
      "inputs": [],
      "name": "name",
      "outputs": [
        {
          "internalType": "string",
          "name": "",
          "type": "string"
        }
      ],
      "stateMutability": "view",
      "type": "function"
    },
    {
      "inputs": [],
      "name": "owner",
      "outputs": [
        {
          "internalType": "address",
          "name": "",
          "type": "address"
        }
      ],
      "stateMutability": "view",
      "type": "function"
    },
    {
      "inputs": [
        {
          "internalType": "uint256",
          "name": "",
          "type": "uint256"
        }
      ],
      "name": "projects",
      "outputs": [
        {
          "internalType": "bool",
          "name": "isActive",
          "type": "bool"
        },
        {
          "internalType": "uint256",
          "name": "fundsReceived",
          "type": "uint256"
        },
        {
          "internalType": "uint256",
          "name": "lastAuditTime",
          "type": "uint256"
        }
      ],
      "stateMutability": "view",
      "type": "function"
    },
    {
      "inputs": [
        {
          "internalType": "uint8[]",
          "name": "specializations",
          "type": "uint8[]"
        }
      ],
      "name": "registerAuditor",
      "outputs": [],
      "stateMutability": "nonpayable",
      "type": "function"
    },
    {
      "inputs": [],
      "name": "registerDeveloper",
      "outputs": [],
      "stateMutability": "nonpayable",
      "type": "function"
    },
    {
      "inputs": [],
      "name": "registerInvestor",
      "outputs": [],
      "stateMutability": "nonpayable",
      "type": "function"
    },
    {
      "inputs": [],
      "name": "renounceOwnership",
      "outputs": [],
      "stateMutability": "nonpayable",
      "type": "function"
    },
    {
      "inputs": [],
      "name": "symbol",
      "outputs": [
        {
          "internalType": "string",
          "name": "",
          "type": "string"
        }
      ],
      "stateMutability": "view",
      "type": "function"
    },
    {
      "inputs": [],
      "name": "totalSupply",
      "outputs": [
        {
          "internalType": "uint256",
          "name": "",
          "type": "uint256"
        }
      ],
      "stateMutability": "view",
      "type": "function"
    },
    {
      "inputs": [
        {
          "internalType": "address",
          "name": "to",
          "type": "address"
        },
        {
          "internalType": "uint256",
          "name": "value",
          "type": "uint256"
        }
      ],
      "name": "transfer",
      "outputs": [
        {
          "internalType": "bool",
          "name": "",
          "type": "bool"
        }
      ],
      "stateMutability": "nonpayable",
      "type": "function"
    },
    {
      "inputs": [
        {
          "internalType": "address",
          "name": "from",
          "type": "address"
        },
        {
          "internalType": "address",
          "name": "to",
          "type": "address"
        },
        {
          "internalType": "uint256",
          "name": "value",
          "type": "uint256"
        }
      ],
      "name": "transferFrom",
      "outputs": [
        {
          "internalType": "bool",
          "name": "",
          "type": "bool"
        }
      ],
      "stateMutability": "nonpayable",
      "type": "function"
    },
    {
      "inputs": [
        {
          "internalType": "address",
          "name": "newOwner",
          "type": "address"
        }
      ],
      "name": "transferOwnership",
      "outputs": [],
      "stateMutability": "nonpayable",
      "type": "function"
    },
    {
      "inputs": [
        {
          "internalType": "uint256",
          "name": "projectId",
          "type": "uint256"
        },
        {
          "internalType": "uint8",
          "name": "specialization",
          "type": "uint8"
        },
        {
          "internalType": "string",
          "name": "ipfsHash",
          "type": "string"
        },
        {
          "internalType": "bool",
          "name": "isApproved",
          "type": "bool"
        }
      ],
      "name": "uploadAuditRecord",
      "outputs": [],
      "stateMutability": "nonpayable",
      "type": "function"
    },
    {
      "inputs": [
        {
          "internalType": "uint256",
          "name": "projectId",
          "type": "uint256"
        }
      ],
      "name": "withdrawFunds",
      "outputs": [],
      "stateMutability": "nonpayable",
      "type": "function"
    },
    {
      "stateMutability": "payable",
      "type": "receive"
    }
  ],
  "bytecode": "0x6080604052620186a06006553480156200001857600080fd5b50604051620046af380380620046af83398181016040528101906200003e91906200053d565b6040518060400160405280600b81526020017f436172626f6e546f6b656e0000000000000000000000000000000000000000008152506040518060400160405280600381526020017f43544b000000000000000000000000000000000000000000000000000000000081525033600073ffffffffffffffffffffffffffffffffffffffff168173ffffffffffffffffffffffffffffffffffffffff1603620001205760006040517f1e4fbdf7000000000000000000000000000000000000000000000000000000008152600401620001179190620005c9565b60405180910390fd5b62000131816200017960201b60201c565b50816004908162000143919062000856565b50806005908162000155919062000856565b505050806006819055506200017133836200023d60201b60201c565b505062000a12565b60008060009054906101000a900473ffffffffffffffffffffffffffffffffffffffff169050816000806101000a81548173ffffffffffffffffffffffffffffffffffffffff021916908373ffffffffffffffffffffffffffffffffffffffff1602179055508173ffffffffffffffffffffffffffffffffffffffff168173ffffffffffffffffffffffffffffffffffffffff167f8be0079c531659141344cd1fd0a4f28419497f9722a3daafe3b4186f6b6457e060405160405180910390a35050565b600073ffffffffffffffffffffffffffffffffffffffff168273ffffffffffffffffffffffffffffffffffffffff1603620002b25760006040517fec442f05000000000000000000000000000000000000000000000000000000008152600401620002a99190620005c9565b60405180910390fd5b620002c660008383620002ca60201b60201c565b5050565b600073ffffffffffffffffffffffffffffffffffffffff168373ffffffffffffffffffffffffffffffffffffffff1603620003205780600360008282546200031391906200096c565b92505081905550620003f8565b6000600160008573ffffffffffffffffffffffffffffffffffffffff1673ffffffffffffffffffffffffffffffffffffffff16815260200190815260200160002054905081811015620003b0578381836040517fe450d38c000000000000000000000000000000000000000000000000000000008152600401620003a793929190620009b8565b60405180910390fd5b818103600160008673ffffffffffffffffffffffffffffffffffffffff1673ffffffffffffffffffffffffffffffffffffffff16815260200190815260200160002081905550505b600073ffffffffffffffffffffffffffffffffffffffff168273ffffffffffffffffffffffffffffffffffffffff160362000443578060036000828254039250508190555062000491565b80600160008473ffffffffffffffffffffffffffffffffffffffff1673ffffffffffffffffffffffffffffffffffffffff168152602001908152602001600020600082825401925050819055505b8173ffffffffffffffffffffffffffffffffffffffff168373ffffffffffffffffffffffffffffffffffffffff167fddf252ad1be2c89b69c2b068fc378daa952ba7f163c4a11628f55a4df523b3ef83604051620004f09190620009f5565b60405180910390a3505050565b600080fd5b6000819050919050565b620005178162000502565b81146200052357600080fd5b50565b60008151905062000537816200050c565b92915050565b60008060408385031215620005575762000556620004fd565b5b6000620005678582860162000526565b92505060206200057a8582860162000526565b9150509250929050565b600073ffffffffffffffffffffffffffffffffffffffff82169050919050565b6000620005b18262000584565b9050919050565b620005c381620005a4565b82525050565b6000602082019050620005e06000830184620005b8565b92915050565b600081519050919050565b7f4e487b7100000000000000000000000000000000000000000000000000000000600052604160045260246000fd5b7f4e487b7100000000000000000000000000000000000000000000000000000000600052602260045260246000fd5b600060028204905060018216806200066857607f821691505b6020821081036200067e576200067d62000620565b5b50919050565b60008190508160005260206000209050919050565b60006020601f8301049050919050565b600082821b905092915050565b600060088302620006e87fffffffffffffffffffffffffffffffffffffffffffffffffffffffffffffffff82620006a9565b620006f48683620006a9565b95508019841693508086168417925050509392505050565b6000819050919050565b600062000737620007316200072b8462000502565b6200070c565b62000502565b9050919050565b6000819050919050565b620007538362000716565b6200076b62000762826200073e565b848454620006b6565b825550505050565b600090565b6200078262000773565b6200078f81848462000748565b505050565b5b81811015620007b757620007ab60008262000778565b60018101905062000795565b5050565b601f8211156200080657620007d08162000684565b620007db8462000699565b81016020851015620007eb578190505b62000803620007fa8562000699565b83018262000794565b50505b505050565b600082821c905092915050565b60006200082b600019846008026200080b565b1980831691505092915050565b600062000846838362000818565b9150826002028217905092915050565b6200086182620005e6565b67ffffffffffffffff8111156200087d576200087c620005f1565b5b6200088982546200064f565b62000896828285620007bb565b600060209050601f831160018114620008ce5760008415620008b9578287015190505b620008c5858262000838565b86555062000935565b601f198416620008de8662000684565b60005b828110156200090857848901518255600182019150602085019450602081019050620008e1565b8683101562000928578489015162000924601f89168262000818565b8355505b6001600288020188555050505b505050505050565b7f4e487b7100000000000000000000000000000000000000000000000000000000600052601160045260246000fd5b6000620009798262000502565b9150620009868362000502565b9250828201905080821115620009a157620009a06200093d565b5b92915050565b620009b28162000502565b82525050565b6000606082019050620009cf6000830186620005b8565b620009de6020830185620009a7565b620009ed6040830184620009a7565b949350505050565b600060208201905062000a0c6000830184620009a7565b92915050565b613c8d8062000a226000396000f3fe6080604052600436106101a05760003560e01c8063715018a6116100ec578063992034d71161008a578063ca1700a911610064578063ca1700a9146105ee578063cbac6d7c14610605578063dd62ed3e1461062e578063f2fde38b1461066b576101a7565b8063992034d71461055f578063a2d3155414610588578063a9059cbb146105b1576101a7565b80638dac044d116100c65780638dac044d146104a257806393e941f6146104cb57806394a531fa146104f457806395d89b4114610534576101a7565b8063715018a614610437578063845d991b1461044e5780638da5cb5b14610477576101a7565b8063313ce5671161015957806361fd5c201161013357806361fd5c20146103635780636a627842146103a05780636f7bc9be146103bc57806370a08231146103fa576101a7565b8063313ce567146102e457806347f9aa9f1461030f5780634b5e8d631461034c576101a7565b806306fdde03146101ac578063095ea7b3146101d7578063107046bd14610214578063155dd5ee1461025357806318160ddd1461027c57806323b872dd146102a7576101a7565b366101a757005b600080fd5b3480156101b857600080fd5b506101c1610694565b6040516101ce91906128b8565b60405180910390f35b3480156101e357600080fd5b506101fe60048036038101906101f99190612982565b610726565b60405161020b91906129dd565b60405180910390f35b34801561022057600080fd5b5061023b600480360381019061023691906129f8565b610749565b60405161024a93929190612a34565b60405180910390f35b34801561025f57600080fd5b5061027a600480360381019061027591906129f8565b610780565b005b34801561028857600080fd5b50610291610afa565b60405161029e9190612a6b565b60405180910390f35b3480156102b357600080fd5b506102ce60048036038101906102c99190612a86565b610b04565b6040516102db91906129dd565b60405180910390f35b3480156102f057600080fd5b506102f9610b33565b6040516103069190612af5565b60405180910390f35b34801561031b57600080fd5b5061033660048036038101906103319190612b10565b610b3c565b6040516103439190612b4c565b60405180910390f35b34801561035857600080fd5b50610361610b7a565b005b34801561036f57600080fd5b5061038a60048036038101906103859190612b10565b610d60565b6040516103979190612b4c565b60405180910390f35b6103ba60048036038101906103b59190612b10565b610d9e565b005b3480156103c857600080fd5b506103e360048036038101906103de9190612b10565b610e09565b6040516103f1929190612b67565b60405180910390f35b34801561040657600080fd5b50610421600480360381019061041c9190612b10565b610e5a565b60405161042e9190612a6b565b60405180910390f35b34801561044357600080fd5b5061044c610ea3565b005b34801561045a57600080fd5b5061047560048036038101906104709190612b90565b610eb7565b005b34801561048357600080fd5b5061048c611270565b6040516104999190612b4c565b60405180910390f35b3480156104ae57600080fd5b506104c960048036038101906104c49190612d18565b611299565b005b3480156104d757600080fd5b506104f260048036038101906104ed9190612db9565b61141b565b005b34801561050057600080fd5b5061051b60048036038101906105169190612e3c565b6116ec565b60405161052b9493929190612e7c565b60405180910390f35b34801561054057600080fd5b506105496117fb565b60405161055691906128b8565b60405180910390f35b34801561056b57600080fd5b50610586600480360381019061058191906129f8565b61188d565b005b34801561059457600080fd5b506105af60048036038101906105aa9190612ec8565b611a4d565b005b3480156105bd57600080fd5b506105d860048036038101906105d39190612982565b611bcb565b6040516105e591906129dd565b60405180910390f35b3480156105fa57600080fd5b50610603611bee565b005b34801561061157600080fd5b5061062c60048036038101906106279190612fbd565b611d79565b005b34801561063a57600080fd5b5061065560048036038101906106509190613006565b611fad565b6040516106629190612a6b565b60405180910390f35b34801561067757600080fd5b50610692600480360381019061068d9190612b10565b612034565b005b6060600480546106a390613075565b80601f01602080910402602001604051908101604052809291908181526020018280546106cf90613075565b801561071c5780601f106106f15761010080835404028352916020019161071c565b820191906000526020600020905b8154815290600101906020018083116106ff57829003601f168201915b5050505050905090565b6000806107316120ba565b905061073e8185856120c2565b600191505092915050565b60096020528060005260406000206000915090508060000160009054906101000a900460ff16908060010154908060040154905083565b6000600960008381526020019081526020016000209050600073ffffffffffffffffffffffffffffffffffffffff16600760003373ffffffffffffffffffffffffffffffffffffffff1673ffffffffffffffffffffffffffffffffffffffff16815260200190815260200160002060000160009054906101000a900473ffffffffffffffffffffffffffffffffffffffff1673ffffffffffffffffffffffffffffffffffffffff1603610868576040517f08c379a000000000000000000000000000000000000000000000000000000000815260040161085f906130f2565b60405180910390fd5b6000805b600760003373ffffffffffffffffffffffffffffffffffffffff1673ffffffffffffffffffffffffffffffffffffffff168152602001908152602001600020600101805490508110156109345783600760003373ffffffffffffffffffffffffffffffffffffffff1673ffffffffffffffffffffffffffffffffffffffff168152602001908152602001600020600101828154811061090e5761090d613112565b5b9060005260206000200154036109275760019150610934565b808060010191505061086c565b5080610975576040517f08c379a000000000000000000000000000000000000000000000000000000000815260040161096c906131b3565b60405180910390fd5b8160000160009054906101000a900460ff166109c6576040517f08c379a00000000000000000000000000000000000000000000000000000000081526004016109bd9061321f565b60405180910390fd5b60008260010154905060008111610a12576040517f08c379a0000000000000000000000000000000000000000000000000000000008152600401610a09906132b1565b60405180910390fd5b600060065482610a229190613300565b905080471015610a67576040517f08c379a0000000000000000000000000000000000000000000000000000000008152600401610a5e9061338e565b60405180910390fd5b600084600101819055503373ffffffffffffffffffffffffffffffffffffffff166108fc829081150290604051600060405180830381858888f19350505050158015610ab7573d6000803e3d6000fd5b507ff440aec6b52895984d061d622e6edeba6210f7c3e059be920663140c084560d7853383604051610aeb939291906133ae565b60405180910390a15050505050565b6000600354905090565b600080610b0f6120ba565b9050610b1c8582856120d4565b610b27858585612168565b60019150509392505050565b60006012905090565b600a6020528060005260406000206000915090508060000160009054906101000a900473ffffffffffffffffffffffffffffffffffffffff16905081565b600073ffffffffffffffffffffffffffffffffffffffff16600860003373ffffffffffffffffffffffffffffffffffffffff1673ffffffffffffffffffffffffffffffffffffffff16815260200190815260200160002060000160009054906101000a900473ffffffffffffffffffffffffffffffffffffffff1673ffffffffffffffffffffffffffffffffffffffff1614610c4b576040517f08c379a0000000000000000000000000000000000000000000000000000000008152600401610c4290613431565b60405180910390fd5b33600860003373ffffffffffffffffffffffffffffffffffffffff1673ffffffffffffffffffffffffffffffffffffffff16815260200190815260200160002060000160006101000a81548173ffffffffffffffffffffffffffffffffffffffff021916908373ffffffffffffffffffffffffffffffffffffffff1602179055506000600860003373ffffffffffffffffffffffffffffffffffffffff1673ffffffffffffffffffffffffffffffffffffffff16815260200190815260200160002060020160006101000a81548160ff0219169083151502179055507f01e428601546e19350993364c26c5a618b33ef987abc24525c998748ae96429433604051610d569190612b4c565b60405180910390a1565b60076020528060005260406000206000915090508060000160009054906101000a900473ffffffffffffffffffffffffffffffffffffffff16905081565b610da661225c565b60003411610de9576040517f08c379a0000000000000000000000000000000000000000000000000000000008152600401610de09061349d565b60405180910390fd5b600060065434610df991906134ec565b9050610e0582826122e3565b5050565b60086020528060005260406000206000915090508060000160009054906101000a900473ffffffffffffffffffffffffffffffffffffffff16908060020160009054906101000a900460ff16905082565b6000600160008373ffffffffffffffffffffffffffffffffffffffff1673ffffffffffffffffffffffffffffffffffffffff168152602001908152602001600020549050919050565b610eab61225c565b610eb56000612365565b565b600073ffffffffffffffffffffffffffffffffffffffff16600860003373ffffffffffffffffffffffffffffffffffffffff1673ffffffffffffffffffffffffffffffffffffffff16815260200190815260200160002060000160009054906101000a900473ffffffffffffffffffffffffffffffffffffffff1673ffffffffffffffffffffffffffffffffffffffff1603610f88576040517f08c379a0000000000000000000000000000000000000000000000000000000008152600401610f7f90613569565b60405180910390fd5b6009600084815260200190815260200160002060000160009054906101000a900460ff16610feb576040517f08c379a0000000000000000000000000000000000000000000000000000000008152600401610fe29061321f565b60405180910390fd5b610ff6333084612168565b816009600085815260200190815260200160002060030160003373ffffffffffffffffffffffffffffffffffffffff1673ffffffffffffffffffffffffffffffffffffffff168152602001908152602001600020600001600082825461105c9190613589565b92505081905550426009600085815260200190815260200160002060030160003373ffffffffffffffffffffffffffffffffffffffff1673ffffffffffffffffffffffffffffffffffffffff1681526020019081526020016000206001018190555080426110ca9190613589565b6009600085815260200190815260200160002060030160003373ffffffffffffffffffffffffffffffffffffffff1673ffffffffffffffffffffffffffffffffffffffff1681526020019081526020016000206002018190555060006009600085815260200190815260200160002060030160003373ffffffffffffffffffffffffffffffffffffffff1673ffffffffffffffffffffffffffffffffffffffff168152602001908152602001600020600301819055507f6c61c5329cf41ff9988561b8d176d2682a931360dab686d553bf24511f556ea88333846009600088815260200190815260200160002060030160003373ffffffffffffffffffffffffffffffffffffffff1673ffffffffffffffffffffffffffffffffffffffff168152602001908152602001600020600101546009600089815260200190815260200160002060030160003373ffffffffffffffffffffffffffffffffffffffff1673ffffffffffffffffffffffffffffffffffffffff168152602001908152602001600020600201546040516112639594939291906135bd565b60405180910390a1505050565b60008060009054906101000a900473ffffffffffffffffffffffffffffffffffffffff16905090565b600073ffffffffffffffffffffffffffffffffffffffff16600860003373ffffffffffffffffffffffffffffffffffffffff1673ffffffffffffffffffffffffffffffffffffffff16815260200190815260200160002060000160009054906101000a900473ffffffffffffffffffffffffffffffffffffffff1673ffffffffffffffffffffffffffffffffffffffff160361136a576040517f08c379a000000000000000000000000000000000000000000000000000000000815260040161136190613569565b60405180910390fd5b600860003373ffffffffffffffffffffffffffffffffffffffff1673ffffffffffffffffffffffffffffffffffffffff168152602001908152602001600020600101819080600181540180825580915050600190039060005260206000200160009091909190915090816113de91906137bc565b507f109ce24571ecd30f021582dae119d3722d5f8fca2b31890b534e313003e15725338260405161141092919061388e565b60405180910390a150565b6000600a60003373ffffffffffffffffffffffffffffffffffffffff1673ffffffffffffffffffffffffffffffffffffffff16815260200190815260200160002090503373ffffffffffffffffffffffffffffffffffffffff168160000160009054906101000a900473ffffffffffffffffffffffffffffffffffffffff1673ffffffffffffffffffffffffffffffffffffffff161480156114e257508060010160008560ff1660ff16815260200190815260200160002060009054906101000a900460ff165b611521576040517f08c379a00000000000000000000000000000000000000000000000000000000081526004016115189061390a565b60405180910390fd5b60006009600087815260200190815260200160002090508060000160009054906101000a900460ff16611589576040517f08c379a00000000000000000000000000000000000000000000000000000000081526004016115809061321f565b60405180910390fd5b600060405180608001604052803373ffffffffffffffffffffffffffffffffffffffff1681526020018760ff1681526020018681526020018515158152509050600b600088815260200190815260200160002081908060018154018082558091505060019003906000526020600020906003020160009091909190915060008201518160000160006101000a81548173ffffffffffffffffffffffffffffffffffffffff021916908373ffffffffffffffffffffffffffffffffffffffff16021790555060208201518160000160146101000a81548160ff021916908360ff160217905550604082015181600101908161168391906137bc565b5060608201518160020160006101000a81548160ff02191690831515021790555050507f2aabfba8a43387259ef057074090096e946fda08330d991b233e723df0799654873387876040516116db949392919061392a565b60405180910390a150505050505050565b600b602052816000526040600020818154811061170857600080fd5b9060005260206000209060030201600091509150508060000160009054906101000a900473ffffffffffffffffffffffffffffffffffffffff16908060000160149054906101000a900460ff169080600101805461176590613075565b80601f016020809104026020016040519081016040528092919081815260200182805461179190613075565b80156117de5780601f106117b3576101008083540402835291602001916117de565b820191906000526020600020905b8154815290600101906020018083116117c157829003601f168201915b5050505050908060020160009054906101000a900460ff16905084565b60606005805461180a90613075565b80601f016020809104026020016040519081016040528092919081815260200182805461183690613075565b80156118835780601f1061185857610100808354040283529160200191611883565b820191906000526020600020905b81548152906001019060200180831161186657829003601f168201915b5050505050905090565b600073ffffffffffffffffffffffffffffffffffffffff16600760003373ffffffffffffffffffffffffffffffffffffffff1673ffffffffffffffffffffffffffffffffffffffff16815260200190815260200160002060000160009054906101000a900473ffffffffffffffffffffffffffffffffffffffff1673ffffffffffffffffffffffffffffffffffffffff160361195e576040517f08c379a0000000000000000000000000000000000000000000000000000000008152600401611955906130f2565b60405180910390fd5b60016009600083815260200190815260200160002060000160006101000a81548160ff021916908315150217905550426009600083815260200190815260200160002060040181905550600760003373ffffffffffffffffffffffffffffffffffffffff1673ffffffffffffffffffffffffffffffffffffffff1681526020019081526020016000206001018190806001815401808255809150506001900390600052602060002001600090919091909150557f63c92f9505d420bff631cb9df33be952bdc11e2118da36a850b43e6bcc4ce4de8133604051611a42929190613976565b60405180910390a150565b3373ffffffffffffffffffffffffffffffffffffffff16600a60003373ffffffffffffffffffffffffffffffffffffffff1673ffffffffffffffffffffffffffffffffffffffff16815260200190815260200160002060000160009054906101000a900473ffffffffffffffffffffffffffffffffffffffff1673ffffffffffffffffffffffffffffffffffffffff1614611b1d576040517f08c379a0000000000000000000000000000000000000000000000000000000008152600401611b1490613a11565b60405180910390fd5b6001600a60003373ffffffffffffffffffffffffffffffffffffffff1673ffffffffffffffffffffffffffffffffffffffff16815260200190815260200160002060010160008360ff1660ff16815260200190815260200160002060006101000a81548160ff0219169083151502179055507f935cc9c85df5982b3f9ea7066abbbcc531f12e40cf46c62ba6f369ba28302b0b3382604051611bc0929190613a31565b60405180910390a150565b600080611bd66120ba565b9050611be3818585612168565b600191505092915050565b600073ffffffffffffffffffffffffffffffffffffffff16600760003373ffffffffffffffffffffffffffffffffffffffff1673ffffffffffffffffffffffffffffffffffffffff16815260200190815260200160002060000160009054906101000a900473ffffffffffffffffffffffffffffffffffffffff1673ffffffffffffffffffffffffffffffffffffffff1614611cbf576040517f08c379a0000000000000000000000000000000000000000000000000000000008152600401611cb690613aa6565b60405180910390fd5b33600760003373ffffffffffffffffffffffffffffffffffffffff1673ffffffffffffffffffffffffffffffffffffffff16815260200190815260200160002060000160006101000a81548173ffffffffffffffffffffffffffffffffffffffff021916908373ffffffffffffffffffffffffffffffffffffffff1602179055507f64432bf33d97c6e03519a3a2880f032d7d261b5a7e3119fbfeaef601431d274933604051611d6f9190612b4c565b60405180910390a1565b600073ffffffffffffffffffffffffffffffffffffffff16600a60003373ffffffffffffffffffffffffffffffffffffffff1673ffffffffffffffffffffffffffffffffffffffff16815260200190815260200160002060000160009054906101000a900473ffffffffffffffffffffffffffffffffffffffff1673ffffffffffffffffffffffffffffffffffffffff1614611e4a576040517f08c379a0000000000000000000000000000000000000000000000000000000008152600401611e4190613b12565b60405180910390fd5b33600a60003373ffffffffffffffffffffffffffffffffffffffff1673ffffffffffffffffffffffffffffffffffffffff16815260200190815260200160002060000160006101000a81548173ffffffffffffffffffffffffffffffffffffffff021916908373ffffffffffffffffffffffffffffffffffffffff16021790555060005b8151811015611f70576001600a60003373ffffffffffffffffffffffffffffffffffffffff1673ffffffffffffffffffffffffffffffffffffffff1681526020019081526020016000206001016000848481518110611f3057611f2f613112565b5b602002602001015160ff1660ff16815260200190815260200160002060006101000a81548160ff0219169083151502179055508080600101915050611ece565b507fc0ce3e9ca33fc82f8616bb402a51646a65d1a914877486f1236cb80cbd7b41193382604051611fa2929190613bf0565b60405180910390a150565b6000600260008473ffffffffffffffffffffffffffffffffffffffff1673ffffffffffffffffffffffffffffffffffffffff16815260200190815260200160002060008373ffffffffffffffffffffffffffffffffffffffff1673ffffffffffffffffffffffffffffffffffffffff16815260200190815260200160002054905092915050565b61203c61225c565b600073ffffffffffffffffffffffffffffffffffffffff168173ffffffffffffffffffffffffffffffffffffffff16036120ae5760006040517f1e4fbdf70000000000000000000000000000000000000000000000000000000081526004016120a59190612b4c565b60405180910390fd5b6120b781612365565b50565b600033905090565b6120cf8383836001612429565b505050565b60006120e08484611fad565b90507fffffffffffffffffffffffffffffffffffffffffffffffffffffffffffffffff81146121625781811015612152578281836040517ffb8f41b200000000000000000000000000000000000000000000000000000000815260040161214993929190613c20565b60405180910390fd5b61216184848484036000612429565b5b50505050565b600073ffffffffffffffffffffffffffffffffffffffff168373ffffffffffffffffffffffffffffffffffffffff16036121da5760006040517f96c6fd1e0000000000000000000000000000000000000000000000000000000081526004016121d19190612b4c565b60405180910390fd5b600073ffffffffffffffffffffffffffffffffffffffff168273ffffffffffffffffffffffffffffffffffffffff160361224c5760006040517fec442f050000000000000000000000000000000000000000000000000000000081526004016122439190612b4c565b60405180910390fd5b612257838383612600565b505050565b6122646120ba565b73ffffffffffffffffffffffffffffffffffffffff16612282611270565b73ffffffffffffffffffffffffffffffffffffffff16146122e1576122a56120ba565b6040517f118cdaa70000000000000000000000000000000000000000000000000000000081526004016122d89190612b4c565b60405180910390fd5b565b600073ffffffffffffffffffffffffffffffffffffffff168273ffffffffffffffffffffffffffffffffffffffff16036123555760006040517fec442f0500000000000000000000000000000000000000000000000000000000815260040161234c9190612b4c565b60405180910390fd5b61236160008383612600565b5050565b60008060009054906101000a900473ffffffffffffffffffffffffffffffffffffffff169050816000806101000a81548173ffffffffffffffffffffffffffffffffffffffff021916908373ffffffffffffffffffffffffffffffffffffffff1602179055508173ffffffffffffffffffffffffffffffffffffffff168173ffffffffffffffffffffffffffffffffffffffff167f8be0079c531659141344cd1fd0a4f28419497f9722a3daafe3b4186f6b6457e060405160405180910390a35050565b600073ffffffffffffffffffffffffffffffffffffffff168473ffffffffffffffffffffffffffffffffffffffff160361249b5760006040517fe602df050000000000000000000000000000000000000000000000000000000081526004016124929190612b4c565b60405180910390fd5b600073ffffffffffffffffffffffffffffffffffffffff168373ffffffffffffffffffffffffffffffffffffffff160361250d5760006040517f94280d620000000000000000000000000000000000000000000000000000000081526004016125049190612b4c565b60405180910390fd5b81600260008673ffffffffffffffffffffffffffffffffffffffff1673ffffffffffffffffffffffffffffffffffffffff16815260200190815260200160002060008573ffffffffffffffffffffffffffffffffffffffff1673ffffffffffffffffffffffffffffffffffffffff1681526020019081526020016000208190555080156125fa578273ffffffffffffffffffffffffffffffffffffffff168473ffffffffffffffffffffffffffffffffffffffff167f8c5be1e5ebec7d5bd14f71427d1e84f3dd0314c0f7b2291e5b200ac8c7c3b925846040516125f19190612a6b565b60405180910390a35b50505050565b600073ffffffffffffffffffffffffffffffffffffffff168373ffffffffffffffffffffffffffffffffffffffff16036126525780600360008282546126469190613589565b92505081905550612727565b6000600160008573ffffffffffffffffffffffffffffffffffffffff1673ffffffffffffffffffffffffffffffffffffffff168152602001908152602001600020549050818110156126df578381836040517fe450d38c0000000000000000000000000000000000000000000000000000000081526004016126d693929190613c20565b60405180910390fd5b818103600160008673ffffffffffffffffffffffffffffffffffffffff1673ffffffffffffffffffffffffffffffffffffffff16815260200190815260200160002081905550505b600073ffffffffffffffffffffffffffffffffffffffff168273ffffffffffffffffffffffffffffffffffffffff160361277057806003600082825403925050819055506127be565b80600160008473ffffffffffffffffffffffffffffffffffffffff1673ffffffffffffffffffffffffffffffffffffffff168152602001908152602001600020600082825401925050819055505b8173ffffffffffffffffffffffffffffffffffffffff168373ffffffffffffffffffffffffffffffffffffffff167fddf252ad1be2c89b69c2b068fc378daa952ba7f163c4a11628f55a4df523b3ef8360405161281b9190612a6b565b60405180910390a3505050565b600081519050919050565b600082825260208201905092915050565b60005b83811015612862578082015181840152602081019050612847565b60008484015250505050565b6000601f19601f8301169050919050565b600061288a82612828565b6128948185612833565b93506128a4818560208601612844565b6128ad8161286e565b840191505092915050565b600060208201905081810360008301526128d2818461287f565b905092915050565b6000604051905090565b600080fd5b600080fd5b600073ffffffffffffffffffffffffffffffffffffffff82169050919050565b6000612919826128ee565b9050919050565b6129298161290e565b811461293457600080fd5b50565b60008135905061294681612920565b92915050565b6000819050919050565b61295f8161294c565b811461296a57600080fd5b50565b60008135905061297c81612956565b92915050565b60008060408385031215612999576129986128e4565b5b60006129a785828601612937565b92505060206129b88582860161296d565b9150509250929050565b60008115159050919050565b6129d7816129c2565b82525050565b60006020820190506129f260008301846129ce565b92915050565b600060208284031215612a0e57612a0d6128e4565b5b6000612a1c8482850161296d565b91505092915050565b612a2e8161294c565b82525050565b6000606082019050612a4960008301866129ce565b612a566020830185612a25565b612a636040830184612a25565b949350505050565b6000602082019050612a806000830184612a25565b92915050565b600080600060608486031215612a9f57612a9e6128e4565b5b6000612aad86828701612937565b9350506020612abe86828701612937565b9250506040612acf8682870161296d565b9150509250925092565b600060ff82169050919050565b612aef81612ad9565b82525050565b6000602082019050612b0a6000830184612ae6565b92915050565b600060208284031215612b2657612b256128e4565b5b6000612b3484828501612937565b91505092915050565b612b468161290e565b82525050565b6000602082019050612b616000830184612b3d565b92915050565b6000604082019050612b7c6000830185612b3d565b612b8960208301846129ce565b9392505050565b600080600060608486031215612ba957612ba86128e4565b5b6000612bb78682870161296d565b9350506020612bc88682870161296d565b9250506040612bd98682870161296d565b9150509250925092565b600080fd5b600080fd5b7f4e487b7100000000000000000000000000000000000000000000000000000000600052604160045260246000fd5b612c258261286e565b810181811067ffffffffffffffff82111715612c4457612c43612bed565b5b80604052505050565b6000612c576128da565b9050612c638282612c1c565b919050565b600067ffffffffffffffff821115612c8357612c82612bed565b5b612c8c8261286e565b9050602081019050919050565b82818337600083830152505050565b6000612cbb612cb684612c68565b612c4d565b905082815260208101848484011115612cd757612cd6612be8565b5b612ce2848285612c99565b509392505050565b600082601f830112612cff57612cfe612be3565b5b8135612d0f848260208601612ca8565b91505092915050565b600060208284031215612d2e57612d2d6128e4565b5b600082013567ffffffffffffffff811115612d4c57612d4b6128e9565b5b612d5884828501612cea565b91505092915050565b612d6a81612ad9565b8114612d7557600080fd5b50565b600081359050612d8781612d61565b92915050565b612d96816129c2565b8114612da157600080fd5b50565b600081359050612db381612d8d565b92915050565b60008060008060808587031215612dd357612dd26128e4565b5b6000612de18782880161296d565b9450506020612df287828801612d78565b935050604085013567ffffffffffffffff811115612e1357612e126128e9565b5b612e1f87828801612cea565b9250506060612e3087828801612da4565b91505092959194509250565b60008060408385031215612e5357612e526128e4565b5b6000612e618582860161296d565b9250506020612e728582860161296d565b9150509250929050565b6000608082019050612e916000830187612b3d565b612e9e6020830186612ae6565b8181036040830152612eb0818561287f565b9050612ebf60608301846129ce565b95945050505050565b600060208284031215612ede57612edd6128e4565b5b6000612eec84828501612d78565b91505092915050565b600067ffffffffffffffff821115612f1057612f0f612bed565b5b602082029050602081019050919050565b600080fd5b6000612f39612f3484612ef5565b612c4d565b90508083825260208201905060208402830185811115612f5c57612f5b612f21565b5b835b81811015612f855780612f718882612d78565b845260208401935050602081019050612f5e565b5050509392505050565b600082601f830112612fa457612fa3612be3565b5b8135612fb4848260208601612f26565b91505092915050565b600060208284031215612fd357612fd26128e4565b5b600082013567ffffffffffffffff811115612ff157612ff06128e9565b5b612ffd84828501612f8f565b91505092915050565b6000806040838503121561301d5761301c6128e4565b5b600061302b85828601612937565b925050602061303c85828601612937565b9150509250929050565b7f4e487b7100000000000000000000000000000000000000000000000000000000600052602260045260246000fd5b6000600282049050600182168061308d57607f821691505b6020821081036130a05761309f613046565b5b50919050565b7f446576656c6f706572206e6f7420726567697374657265640000000000000000600082015250565b60006130dc601883612833565b91506130e7826130a6565b602082019050919050565b6000602082019050818103600083015261310b816130cf565b9050919050565b7f4e487b7100000000000000000000000000000000000000000000000000000000600052603260045260246000fd5b7f43616c6c6572206973206e6f7420746865206f776e6572206f6620746865207060008201527f726f6a6563740000000000000000000000000000000000000000000000000000602082015250565b600061319d602683612833565b91506131a882613141565b604082019050919050565b600060208201905081810360008301526131cc81613190565b9050919050565b7f50726f6a656374206973206e6f74206163746976650000000000000000000000600082015250565b6000613209601583612833565b9150613214826131d3565b602082019050919050565b60006020820190508181036000830152613238816131fc565b9050919050565b7f4e6f2066756e647320617661696c61626c6520666f722077697468647261776160008201527f6c00000000000000000000000000000000000000000000000000000000000000602082015250565b600061329b602183612833565b91506132a68261323f565b604082019050919050565b600060208201905081810360008301526132ca8161328e565b9050919050565b7f4e487b7100000000000000000000000000000000000000000000000000000000600052601160045260246000fd5b600061330b8261294c565b91506133168361294c565b92508282026133248161294c565b9150828204841483151761333b5761333a6132d1565b5b5092915050565b7f496e73756666696369656e742045544820696e20636f6e747261637400000000600082015250565b6000613378601c83612833565b915061338382613342565b602082019050919050565b600060208201905081810360008301526133a78161336b565b9050919050565b60006060820190506133c36000830186612a25565b6133d06020830185612b3d565b6133dd6040830184612a25565b949350505050565b7f496e766573746f7220616c726561647920726567697374657265640000000000600082015250565b600061341b601b83612833565b9150613426826133e5565b602082019050919050565b6000602082019050818103600083015261344a8161340e565b9050919050565b7f4e6f204554482073656e74000000000000000000000000000000000000000000600082015250565b6000613487600b83612833565b915061349282613451565b602082019050919050565b600060208201905081810360008301526134b68161347a565b9050919050565b7f4e487b7100000000000000000000000000000000000000000000000000000000600052601260045260246000fd5b60006134f78261294c565b91506135028361294c565b925082613512576135116134bd565b5b828204905092915050565b7f496e766573746f72206e6f742072656769737465726564000000000000000000600082015250565b6000613553601783612833565b915061355e8261351d565b602082019050919050565b6000602082019050818103600083015261358281613546565b9050919050565b60006135948261294c565b915061359f8361294c565b92508282019050808211156135b7576135b66132d1565b5b92915050565b600060a0820190506135d26000830188612a25565b6135df6020830187612b3d565b6135ec6040830186612a25565b6135f96060830185612a25565b6136066080830184612a25565b9695505050505050565b60008190508160005260206000209050919050565b60006020601f8301049050919050565b600082821b905092915050565b6000600883026136727fffffffffffffffffffffffffffffffffffffffffffffffffffffffffffffffff82613635565b61367c8683613635565b95508019841693508086168417925050509392505050565b6000819050919050565b60006136b96136b46136af8461294c565b613694565b61294c565b9050919050565b6000819050919050565b6136d38361369e565b6136e76136df826136c0565b848454613642565b825550505050565b600090565b6136fc6136ef565b6137078184846136ca565b505050565b5b8181101561372b576137206000826136f4565b60018101905061370d565b5050565b601f8211156137705761374181613610565b61374a84613625565b81016020851015613759578190505b61376d61376585613625565b83018261370c565b50505b505050565b600082821c905092915050565b600061379360001984600802613775565b1980831691505092915050565b60006137ac8383613782565b9150826002028217905092915050565b6137c582612828565b67ffffffffffffffff8111156137de576137dd612bed565b5b6137e88254613075565b6137f382828561372f565b600060209050601f8311600181146138265760008415613814578287015190505b61381e85826137a0565b865550613886565b601f19841661383486613610565b60005b8281101561385c57848901518255600182019150602085019450602081019050613837565b868310156138795784890151613875601f891682613782565b8355505b6001600288020188555050505b505050505050565b60006040820190506138a36000830185612b3d565b81810360208301526138b5818461287f565b90509392505050565b7f4e6f7420617574686f72697a656420746f206175646974000000000000000000600082015250565b60006138f4601783612833565b91506138ff826138be565b602082019050919050565b60006020820190508181036000830152613923816138e7565b9050919050565b600060808201905061393f6000830187612a25565b61394c6020830186612b3d565b818103604083015261395e818561287f565b905061396d60608301846129ce565b95945050505050565b600060408201905061398b6000830185612a25565b6139986020830184612b3d565b9392505050565b7f4e6f7420617574686f72697a656420746f20616464207370656369616c697a6160008201527f74696f6e00000000000000000000000000000000000000000000000000000000602082015250565b60006139fb602483612833565b9150613a068261399f565b604082019050919050565b60006020820190508181036000830152613a2a816139ee565b9050919050565b6000604082019050613a466000830185612b3d565b613a536020830184612ae6565b9392505050565b7f446576656c6f70657220616c7265616479207265676973746572656400000000600082015250565b6000613a90601c83612833565b9150613a9b82613a5a565b602082019050919050565b60006020820190508181036000830152613abf81613a83565b9050919050565b7f41756469746f7220616c72656164792072656769737465726564000000000000600082015250565b6000613afc601a83612833565b9150613b0782613ac6565b602082019050919050565b60006020820190508181036000830152613b2b81613aef565b9050919050565b600081519050919050565b600082825260208201905092915050565b6000819050602082019050919050565b613b6781612ad9565b82525050565b6000613b798383613b5e565b60208301905092915050565b6000602082019050919050565b6000613b9d82613b32565b613ba78185613b3d565b9350613bb283613b4e565b8060005b83811015613be3578151613bca8882613b6d565b9750613bd583613b85565b925050600181019050613bb6565b5085935050505092915050565b6000604082019050613c056000830185612b3d565b8181036020830152613c178184613b92565b90509392505050565b6000606082019050613c356000830186612b3d565b613c426020830185612a25565b613c4f6040830184612a25565b94935050505056fea26469706673582212204a8252428ffad95c2796a44824efc04859c70afb12f54739ad68604a27f43deb64736f6c63430008180033",
  "linkReferences": {},
  "deployedLinkReferences": {}
}